{
  "contractName": "PDSLedger",
  "abi": [
    {
      "inputs": [],
      "stateMutability": "nonpayable",
      "type": "constructor"
    },
    {
      "anonymous": false,
      "inputs": [
        {
          "indexed": false,
          "internalType": "string",
          "name": "txType",
          "type": "string"
        },
        {
          "indexed": false,
          "internalType": "string",
          "name": "mongoId",
          "type": "string"
        },
        {
          "indexed": false,
          "internalType": "string",
          "name": "dataHash",
          "type": "string"
        },
        {
          "indexed": false,
          "internalType": "uint256",
          "name": "timestamp",
          "type": "uint256"
        }
      ],
      "name": "TransactionAdded",
      "type": "event"
    },
    {
      "inputs": [],
      "name": "authority",
      "outputs": [
        {
          "internalType": "address",
          "name": "",
          "type": "address"
        }
      ],
      "stateMutability": "view",
      "type": "function",
      "constant": true
    },
    {
      "inputs": [
        {
          "internalType": "uint256",
          "name": "",
          "type": "uint256"
        }
      ],
      "name": "transactions",
      "outputs": [
        {
          "internalType": "string",
          "name": "txType",
          "type": "string"
        },
        {
          "internalType": "string",
          "name": "mongoId",
          "type": "string"
        },
        {
          "internalType": "string",
          "name": "dataHash",
          "type": "string"
        },
        {
          "internalType": "uint256",
          "name": "timestamp",
          "type": "uint256"
        }
      ],
      "stateMutability": "view",
      "type": "function",
      "constant": true
    },
    {
      "inputs": [
        {
          "internalType": "string",
          "name": "_txType",
          "type": "string"
        },
        {
          "internalType": "string",
          "name": "_mongoId",
          "type": "string"
        },
        {
          "internalType": "string",
          "name": "_dataHash",
          "type": "string"
        }
      ],
      "name": "addTransaction",
      "outputs": [],
      "stateMutability": "nonpayable",
      "type": "function"
    },
    {
      "inputs": [],
      "name": "getTransactionCount",
      "outputs": [
        {
          "internalType": "uint256",
          "name": "",
          "type": "uint256"
        }
      ],
      "stateMutability": "view",
      "type": "function",
      "constant": true
    },
    {
      "inputs": [
        {
          "internalType": "uint256",
          "name": "index",
          "type": "uint256"
        }
      ],
      "name": "getTransaction",
      "outputs": [
        {
          "components": [
            {
              "internalType": "string",
              "name": "txType",
              "type": "string"
            },
            {
              "internalType": "string",
              "name": "mongoId",
              "type": "string"
            },
            {
              "internalType": "string",
              "name": "dataHash",
              "type": "string"
            },
            {
              "internalType": "uint256",
              "name": "timestamp",
              "type": "uint256"
            }
          ],
          "internalType": "struct PDSLedger.TransactionRecord",
          "name": "",
          "type": "tuple"
        }
      ],
      "stateMutability": "view",
      "type": "function",
      "constant": true
    }
  ],
  "bytecode": "0x608060405234801561001057600080fd5b50336000806101000a81548173ffffffffffffffffffffffffffffffffffffffff021916908373ffffffffffffffffffffffffffffffffffffffff160217905550610f0c806100606000396000f3fe608060405234801561001057600080fd5b50600436106100575760003560e01c80632e7700f01461005c57806333ea3dc81461007a5780639ace38c2146100aa578063bf7e214f146100dd578063f61921df146100fb575b600080fd5b610064610117565b60405161007191906106c7565b60405180910390f35b610094600480360381019061008f9190610722565b610124565b6040516100a1919061085f565b60405180910390f35b6100c460048036038101906100bf9190610722565b610320565b6040516100d494939291906108cb565b60405180910390f35b6100e56104f8565b6040516100f29190610966565b60405180910390f35b61011560048036038101906101109190610ab6565b61051c565b005b6000600180549050905090565b61012c610686565b600182815481106101405761013f610b5d565b5b906000526020600020906004020160405180608001604052908160008201805461016990610bbb565b80601f016020809104026020016040519081016040528092919081815260200182805461019590610bbb565b80156101e25780601f106101b7576101008083540402835291602001916101e2565b820191906000526020600020905b8154815290600101906020018083116101c557829003601f168201915b505050505081526020016001820180546101fb90610bbb565b80601f016020809104026020016040519081016040528092919081815260200182805461022790610bbb565b80156102745780601f1061024957610100808354040283529160200191610274565b820191906000526020600020905b81548152906001019060200180831161025757829003601f168201915b5050505050815260200160028201805461028d90610bbb565b80601f01602080910402602001604051908101604052809291908181526020018280546102b990610bbb565b80156103065780601f106102db57610100808354040283529160200191610306565b820191906000526020600020905b8154815290600101906020018083116102e957829003601f168201915b505050505081526020016003820154815250509050919050565b6001818154811061033057600080fd5b906000526020600020906004020160009150905080600001805461035390610bbb565b80601f016020809104026020016040519081016040528092919081815260200182805461037f90610bbb565b80156103cc5780601f106103a1576101008083540402835291602001916103cc565b820191906000526020600020905b8154815290600101906020018083116103af57829003601f168201915b5050505050908060010180546103e190610bbb565b80601f016020809104026020016040519081016040528092919081815260200182805461040d90610bbb565b801561045a5780601f1061042f5761010080835404028352916020019161045a565b820191906000526020600020905b81548152906001019060200180831161043d57829003601f168201915b50505050509080600201805461046f90610bbb565b80601f016020809104026020016040519081016040528092919081815260200182805461049b90610bbb565b80156104e85780601f106104bd576101008083540402835291602001916104e8565b820191906000526020600020905b8154815290600101906020018083116104cb57829003601f168201915b5050505050908060030154905084565b60008054906101000a900473ffffffffffffffffffffffffffffffffffffffff1681565b60008054906101000a900473ffffffffffffffffffffffffffffffffffffffff1673ffffffffffffffffffffffffffffffffffffffff163373ffffffffffffffffffffffffffffffffffffffff16146105aa576040517f08c379a00000000000000000000000000000000000000000000000000000000081526004016105a190610c38565b60405180910390fd5b60016040518060800160405280858152602001848152602001838152602001428152509080600181540180825580915050600190039060005260206000209060040201600090919091909150600082015181600001908161060b9190610e04565b5060208201518160010190816106219190610e04565b5060408201518160020190816106379190610e04565b506060820151816003015550507fa080c7bbc37472f59ac25756d117c090eee3efb92ef9d1bd72e8a24fe4fb433a8383834260405161067994939291906108cb565b60405180910390a1505050565b6040518060800160405280606081526020016060815260200160608152602001600081525090565b6000819050919050565b6106c1816106ae565b82525050565b60006020820190506106dc60008301846106b8565b92915050565b6000604051905090565b600080fd5b600080fd5b6106ff816106ae565b811461070a57600080fd5b50565b60008135905061071c816106f6565b92915050565b600060208284031215610738576107376106ec565b5b60006107468482850161070d565b91505092915050565b600081519050919050565b600082825260208201905092915050565b60005b8381101561078957808201518184015260208101905061076e565b60008484015250505050565b6000601f19601f8301169050919050565b60006107b18261074f565b6107bb818561075a565b93506107cb81856020860161076b565b6107d481610795565b840191505092915050565b6107e8816106ae565b82525050565b6000608083016000830151848203600086015261080b82826107a6565b9150506020830151848203602086015261082582826107a6565b9150506040830151848203604086015261083f82826107a6565b915050606083015161085460608601826107df565b508091505092915050565b6000602082019050818103600083015261087981846107ee565b905092915050565b600082825260208201905092915050565b600061089d8261074f565b6108a78185610881565b93506108b781856020860161076b565b6108c081610795565b840191505092915050565b600060808201905081810360008301526108e58187610892565b905081810360208301526108f98186610892565b9050818103604083015261090d8185610892565b905061091c60608301846106b8565b95945050505050565b600073ffffffffffffffffffffffffffffffffffffffff82169050919050565b600061095082610925565b9050919050565b61096081610945565b82525050565b600060208201905061097b6000830184610957565b92915050565b600080fd5b600080fd5b7f4e487b7100000000000000000000000000000000000000000000000000000000600052604160045260246000fd5b6109c382610795565b810181811067ffffffffffffffff821117156109e2576109e161098b565b5b80604052505050565b60006109f56106e2565b9050610a0182826109ba565b919050565b600067ffffffffffffffff821115610a2157610a2061098b565b5b610a2a82610795565b9050602081019050919050565b82818337600083830152505050565b6000610a59610a5484610a06565b6109eb565b905082815260208101848484011115610a7557610a74610986565b5b610a80848285610a37565b509392505050565b600082601f830112610a9d57610a9c610981565b5b8135610aad848260208601610a46565b91505092915050565b600080600060608486031215610acf57610ace6106ec565b5b600084013567ffffffffffffffff811115610aed57610aec6106f1565b5b610af986828701610a88565b935050602084013567ffffffffffffffff811115610b1a57610b196106f1565b5b610b2686828701610a88565b925050604084013567ffffffffffffffff811115610b4757610b466106f1565b5b610b5386828701610a88565b9150509250925092565b7f4e487b7100000000000000000000000000000000000000000000000000000000600052603260045260246000fd5b7f4e487b7100000000000000000000000000000000000000000000000000000000600052602260045260246000fd5b60006002820490506001821680610bd357607f821691505b602082108103610be657610be5610b8c565b5b50919050565b7f4e6f7420617574686f7269747900000000000000000000000000000000000000600082015250565b6000610c22600d83610881565b9150610c2d82610bec565b602082019050919050565b60006020820190508181036000830152610c5181610c15565b9050919050565b60008190508160005260206000209050919050565b60006020601f8301049050919050565b600082821b905092915050565b600060088302610cba7fffffffffffffffffffffffffffffffffffffffffffffffffffffffffffffffff82610c7d565b610cc48683610c7d565b95508019841693508086168417925050509392505050565b6000819050919050565b6000610d01610cfc610cf7846106ae565b610cdc565b6106ae565b9050919050565b6000819050919050565b610d1b83610ce6565b610d2f610d2782610d08565b848454610c8a565b825550505050565b600090565b610d44610d37565b610d4f818484610d12565b505050565b5b81811015610d7357610d68600082610d3c565b600181019050610d55565b5050565b601f821115610db857610d8981610c58565b610d9284610c6d565b81016020851015610da1578190505b610db5610dad85610c6d565b830182610d54565b50505b505050565b600082821c905092915050565b6000610ddb60001984600802610dbd565b1980831691505092915050565b6000610df48383610dca565b9150826002028217905092915050565b610e0d8261074f565b67ffffffffffffffff811115610e2657610e2561098b565b5b610e308254610bbb565b610e3b828285610d77565b600060209050601f831160018114610e6e5760008415610e5c578287015190505b610e668582610de8565b865550610ece565b601f198416610e7c86610c58565b60005b82811015610ea457848901518255600182019150602085019450602081019050610e7f565b86831015610ec15784890151610ebd601f891682610dca565b8355505b6001600288020188555050505b50505050505056fea264697066735822122088ccc9a47f0a041a6ffa42922aa6ae519438c728428b734e00d72f32b181746464736f6c63430008130033",
  "immutableReferences": {},
  "source": "// SPDX-License-Identifier: MIT\r\npragma solidity ^0.8.19;\r\n\r\ncontract PDSLedger {\r\n\r\n    address public authority;\r\n\r\n    constructor() {\r\n        authority = msg.sender;\r\n    }\r\n\r\n    modifier onlyAuthority() {\r\n        require(msg.sender == authority, \"Not authority\");\r\n        _;\r\n    }\r\n\r\n    struct TransactionRecord {\r\n        string txType;        // USER / SHOP\r\n        string mongoId;       // MongoDB _id\r\n        string dataHash;      // Hash of transaction JSON\r\n        uint256 timestamp;\r\n    }\r\n\r\n    TransactionRecord[] public transactions;\r\n\r\n    event TransactionAdded(\r\n        string txType,\r\n        string mongoId,\r\n        string dataHash,\r\n        uint256 timestamp\r\n    );\r\n\r\n    function addTransaction(\r\n        string memory _txType,\r\n        string memory _mongoId,\r\n        string memory _dataHash\r\n    ) public onlyAuthority {\r\n        transactions.push(\r\n            TransactionRecord(\r\n                _txType,\r\n                _mongoId,\r\n                _dataHash,\r\n                block.timestamp\r\n            )\r\n        );\r\n\r\n        emit TransactionAdded(_txType, _mongoId, _dataHash, block.timestamp);\r\n    }\r\n\r\n    function getTransactionCount() public view returns (uint256) {\r\n        return transactions.length;\r\n    }\r\n\r\n    function getTransaction(uint256 index)\r\n        public\r\n        view\r\n        returns (TransactionRecord memory)\r\n    {\r\n        return transactions[index];\r\n    }\r\n}\r\n",
  "sourcePath": "C:\\Users\\nisharani\\Desktop\\PDS\\Public-Distribution-System-using-blockchain\\pds\\blockchain\\contracts\\PDSLedger.sol",
  "compiler": {
    "name": "solc",
    "version": "0.8.19+commit.7dd6d404.Emscripten.clang"
  },
  "schemaVersion": "3.4.16",
  "updatedAt": "2026-02-11T15:11:26.150Z",
  "networkType": "ethereum",
  "devdoc": {
    "kind": "dev",
    "methods": {},
    "version": 1
  },
  "userdoc": {
    "kind": "user",
    "methods": {},
    "version": 1
  }
}